:020000040000FA
:060000003BEF04F01200CA
:020006001200E6
:060008000EEF00F01200F3
:02000E000100EF
:0C00100092080000800000002C0000009E
:04001C00DACFE4FF54
:10002000E2CFDAFFE652F0A008D0F090010E000116
:10003000946F956B982B000E9923F2A405D00001C4
:100040008C2B000E8D23F294E552E5CFDAFF1100E0
:10005000D9CFE6FFE1CFD9FF1A0EE126DE6ADD6ACD
:10006000020EDB683F0EF36E030EF3CFDBFF060ECE
:10007000F36E040EF3CFDBFF5B0EF36E050EF3CFD2
:10008000DBFF4F0EF36E060EF3CFDBFF660EF36E53
:10009000070EF3CFDBFF6D0EF36E080EF3CFDBFF21
:1000A000FC0EF36E090EF3CFDBFF070EF36E0A0EA4
:1000B000F3CFDBFF7F0EF36E0B0EF3CFDBFF670E8C
:1000C000F36E0C0EF3CFDBFF190EDB6AD38AF28ED0
:1000D000F29CF28AF294F298F086C26A070EC16E20
:1000E000C10ED56E956A836A946A070E936ED668C0
:1000F000818E0001E80E8C5D030E8D5908E3F284B9
:10010000A22B000EA3231E0E8C6F8D6BF2943C0E5F
:10011000A25D000EA35905E3A42B000EA523A26B3C
:10012000A36B3C0EA45D000EA55905E3A62B000EA3
:10013000A723A46BA56B180EA61901E1A75102E134
:10014000A66BA76BFCD9B2C0E6FFB3C0E6FFB0C098
:10015000E6FFB1C0E6FFAEC0E6FFAFC0E6FFACC051
:10016000E6FFADC0E6FF83D9146E080EE15E1450C1
:10017000010E00018E6F8F6B0001010E941901E1D9
:10018000955101E0F9D0010E981901E1995136E13C
:10019000010E8E1901E18F5118E1110EACC0DBFF89
:1001A000120EADC0DBFF130EAEC0DBFF140EAFC0EE
:1001B000DBFF150EB0C0DBFF160EB1C0DBFF170E64
:1001C000B0C0DBFF180EB1C0DBFF010E901901E1DA
:1001D000915114E1110EDB6A120EDB6A130EDB6A19
:1001E000140EDB6A150EB0C0DBFF160EB1C0DBFFCC
:1001F000170EB2C0DBFF180EB3C0DBFF020E98195A
:1002000001E1995136E1010E8E1901E18F5118E19A
:10021000130EAEC0DBFF140EAFC0DBFF110EACC07F
:10022000DBFF120EADC0DBFF150EB0C0DBFF160EFC
:10023000B1C0DBFF170EB2C0DBFF180EB3C0DBFF8F
:10024000010E901901E1915114E1130EAEC0DBFFD4
:10025000140EAFC0DBFF110EACC0DBFF120EADC041
:10026000DBFF150EDB6A160EDB6A170EDB6A180E53
:10027000DB6A030E981901E1995103E1010E986FB1
:10028000996B170EDBCFE6FF180EDBCFE6FF150EDE
:10029000DBCFE6FF160EDBCFE6FF130EDBCFE6FF6C
:1002A000140EDBCFE6FF110EDBCFE6FF120EDBCF25
:1002B000E6FF11D9146E080EE15E14500001922B76
:1002C000000E93230A0E921901E193511FE1010ED2
:1002D0008E1901E18F510BE19051911108E1010E4E
:1002E000906F916B8E6B8F6B926B936B0FD08E5167
:1002F0008F110CE1010E901901E1915107E1906B12
:10030000916B010E8E6F8F6B926B936B8150010B13
:100310000FE0A051A1110CE1010E981901E19951D2
:1003200007E1010EA06FA16BA42B000EA52307D936
:100330008150010B08E10001010EA01901E1A1515A
:1003400002E1A06BA16B8150010B10E00001A051F4
:10035000A1110CE1020E981901E1995107E1010E7A
:10036000A06FA16BA62B000EA723E9D881A403D010
:100370000001946B956B00D7BCD61A0EE15C02E2CB
:10038000E16AE552E16EE552E7CFD9FF1200D9CF1D
:10039000E6FFE1CFD9FFFE0EDBCF14F0156A166A37
:1003A000330E0C6E030E0D6E0E6A14C007F015C0EE
:1003B00008F016C009F039EC03F004C014F005C0D1
:1003C00015F006C016F0E80E0C6E030E0D6E0E6AE8
:1003D00014C007F015C008F016C009F00CEC03F0CB
:1003E00007C014F008C015F009C016F01450E66EEE
:1003F000EEEC03F0E552E552E7CFD9FF1200D9CF7A
:10040000E6FFE1CFD9FFFE0EDBCF14F0156A166AC6
:10041000330E0C6E030E0D6E0E6A14C007F015C07D
:1004200008F016C009F039EC03F004C014F005C060
:1004300015F006C016F0E80E0C6E030E0D6E0E6A77
:1004400014C007F015C008F016C009F00CEC03F05A
:1004500007C014F008C015F009C016F01450E66E7D
:100460001BEC04F0E552E552E7CFD9FF1200D9CFDB
:10047000E6FFE1CFD9FF040EE1268396FD0EDB50A7
:10048000826E8380050EE66EBADFE5528390FB0E26
:10049000DB50826E8382050EE66EB1DFE5528392F9
:1004A000F90EDB50826E8384050EE66EA8DFE552FE
:1004B0008394F70EDB50826E8386050EE66E9FDF17
:1004C000E552040EE15C02E2E16AE552E16EE552BA
:1004D000E7CFD9FF1200D9CFE6FFE1CFD9FF040E55
:1004E000E1268396FD0EDB50826E8380050EE66E5C
:1004F00086DFE5528390FB0EDB50826E8382050E11
:10050000E66E7DDFE5528392F90EDB50826E8384C6
:10051000050EE66E74DFE5528394F70EDB50826EB3
:100520008386050EE66E6BDFE552040EE15C02E2A7
:10053000E16AE552E16EE552E7CFD9FF1200A4C0AF
:10054000B4F0A5C0B5F00A0E0D6E0E6AB4C008F086
:10055000B5C009F005EC04F004C0B4F005C0B5F076
:10056000800E0001B425E96E000EB521EA6EEF5051
:10057000AC6FAD6BA4C0B6F0A5C0B7F00A0E0D6E9F
:100580000E6AB6C008F0B7C009F005EC04F008C068
:10059000B6F009C0B7F0800E0001B625E96E000E76
:1005A000B721EA6EEF50AE6FAF6BA6C0B8F0A7C030
:1005B000B9F00A0E0D6E0E6AB8C008F0B9C009F0A5
:1005C00005EC04F004C0B8F005C0B9F0800E0001DD
:1005D000B825E96E000EB921EA6EEF50B06FB16B2D
:1005E000A6C0BAF0A7C0BBF00A0E0D6E0E6ABAC064
:1005F00008F0BBC009F005EC04F008C0BAF009C06F
:10060000BBF0800E0001BA25E96E000EBB21EA6E38
:08061000EF50B26FB36B120052
:08061800006A0EAE17EF03F0BB
:100620000C6C0D1E0E1EE86A0D220E22001E09AE75
:1006300021EF03F0076C081E091EE86A0822092250
:10064000001ED1EC03F009BE34EF03F000AE000C45
:10065000076C081E091EE86A08220922036C041EA2
:10066000051E04220522000C00BE28EF03F00188BD
:10067000FF0C09C013F008C012F007C011F00750BA
:100680000C02F4CF05F0F3CF04F008500D02F4CFC4
:1006900007F0F3CF06F00C02F3500526F4500622C3
:1006A000E86A072211500D02F3500526F450062285
:1006B000E86A072209500C02F3500626F45007227C
:1006C00009500D02086AE86A0822F3500726F45020
:1006D000082211500E02F3500626F4500722096A30
:1006E000E86A0822092212500E02F3500726F4503D
:1006F0000822E86A092213500E02F3500826F4502B
:040700000922000CBE
:0C0704000E0EF66E000EF76E000EF86E82
:1007100000010900F550C16F0900F550C26F03E1F7
:10072000C16701D03DD00900F550BC6F0900F550FC
:10073000BD6F0900F550BE6F09000900F550E96E64
:100740000900F550EA6E090009000900F550BF6F75
:100750000900F550C06F09000900F6CFC3F0F7CFCC
:10076000C4F0F8CFC5F0BCC0F6FFBDC0F7FFBEC0F7
:10077000F8FF0001BF5302E1C05307E00900F55044
:10078000EE6EBF07F8E2C007F9D7C3C0F6FFC4C0DA
:10079000F7FFC5C0F8FF0001C107000EC25BBFD75D
:0207A000120045
:0E07A200056A046A036A180EE76ED8900736DF
:1007B000083609360336043605360C50035C0D50F6
:1007C00004580E50055807E30C50035E0D50045AB0
:0C07D0000E50055A072AE72EEAD7120047
:0407DC00FF0EE350D9
:1007E000186EEF0E01D0F30EE76EE72EF5EF03F073
:1007F0000C0E176EE76AE72EFBEF03F0172EFAEFE9
:0A08000003F0182EF3EF03F01200CE
:06080A00056A046A100EED
:10081000E76ED89008360936043605360D50045C6C
:100820000E50055805E30D50045E0E50055A082A77
:06083000E72EF0D71200D4
:0A083600FF0EE350186E480E01D0CB
:100840004C0EE76EE72EFED7E76AE72EFED7182E8E
:06085000F7D700001200C2
:0A085600000EF36E00EE00F0060E37
:1008600001D81200EA6002D0EE6AFCD7F350E960CA
:060870001200EE6AFCD745
:0A08760015EE00F025EE00F0F86A20
:10088000019C82EC03F003EC00F028EC00F0FBD7B5
:02089000120054
:0E0892003F065B4F666D7C077F67000000002D
:1008A0000000000000000000000000000000000048
:0E08B00000000000000000000000000000003A
:020000040030CA
:0100010007F7
:010002001EDF
:010003001EDE
:010005008377
:010006008178
:00000001FF
